:10E00000FE60006E008D406E00100704BDE2978D2B
:10E0100067815326FA8D6181392729813126F07F66
:10E02000600F8D318002B760478D1C8D287A604764
:10E030002709A700A10026080820F07C600F27CF41
:10E04000863F8D317EE1548D0CB7600D8D07B76032
:10E050000EFE600D398D5348484848168D4C1B16EE
:10E06000FB600FF7600F3944444444840F8B3081C8
:10E070003923028B077EE1D17EE1AC8DF808A60042
:10E08000810426F7397EE14C8DBDCEE1928DEFCE35
:10E09000600D8D34FE600D8D318D318DDB8120273B
:10E0A0003D810D27E0815E202C018DCC80302B4CF2
:10E0B00081092F0A81112B4481162E40800739A631
:10E0C000008DA4A6000820A38DF58DF3862020A541
:10E0D0008E6042202C26070909FF600D20ACFF60EE
:10E0E0000D2002206F813025A18146229D8DBDBD6E
:10E0F000E05709A700A10027917EE040BE600820FC
:10E100004BBF600886FFBDE257CE8018A600B680E0
:10E11000192002201C263D8603A7008615A700BDF6
:10E12000E35F203001BF6008306D0626026A056A91
:10E1300006CEE192BDE07EFE600808BDE4A48D8AB3
:10E140008D888D848D82CE6008BDE0C8FE60128C03
:10E15000E124270E8E6042CE8018FF600A7F600C9B
:10E160008D4DCEE191BDE07E8D42CEE379A10026BA
:10E1700007BDE0CCEE016E000808088CE3A626ED92
:10E1800020CAFE60126E000D0A5339040D0A533185
:10E1900004130D0A2404201EFE60066E00CE20002B
:10E1A0000926FD390101018D10847F3920F93BFFDB
:10E1B0006010FE600A39313131378DF38615A700C2
:10E1C000A6004724FBA601F6600C270A20140101D3
:10E1D000012000378DD9C611E700E600575724FA11
:10E1E000A70133FE601039BDE0C8FE600DBC6004BD
:10E1F000278E082013BDE288BDE047FF6004BDE024
:10E20000CCBDE05516FE6002A600FF600D1127028E
:10E2100020DBCEE192BDE07ECE600D20CACEE009CB
:10E22000BDE07EBDE19D205DCEE124BC6012271AD9
:10E23000088D32BDE047FF6014A600B76016863F28
:10E24000A700CEE1248D1E7EE162FE6014B660164A
:10E25000A700CEE12520DAB76043FE60128CE124EE
:10E260002706CEE125FF601239BDE300CEE187BD70
:10E27000E07E7EE154CE6049FF600409BDE309CE33
:10E28000E187BDE07E7EE154BDE047FF60027EE0B5
:10E29000CCBDE047FF600436860DBDE075860ABD43
:10E2A000E07532398DE28DE9B6600384F0B7600322
:10E2B000FE6002FF6044B6600584F0B76005CE6082
:10E2C00044BDE0C8FE6044C608BDE0CA5A26FABD97
:10E2D000E0CCBDE0CCFE6044C608A600817F2704E8
:10E2E00081202402862EBDE075085A26EDBDE297F6
:10E2F000FF60448C00002705BC600426C17EE15409
:10E30000BDE288BDE291FE6002FF6044B66005B0E8
:10E310006045F66004F26044260481102502860FF1
:10E320008B04B760478003B76046CEE18CBDE07ECA
:10E330005FCE60478D24CE60448D1F8D1DFE6044EE
:10E340008D187A604626F9FF60445337308D0B33C1
:10E35000FE604409BC600426B339EB007EE0BFB622
:10E360008019B68019B6801939BDE078BDE2978171
:10E370003126037EE0157EE15447E1AE5AF3004DAD
:10E38000E08846E1F552E1314AE00543E21D44E20E
:10E39000A442E22850E2694CE00C53E3693FE3A653
:10E3A00058E60045E275CEE3AFBDE07E7EE1540D58
:10E3B0000A2042202A2A20202020203A4252454189
:10E3C0004B0D0A204320202020202020203A434CBF
:10E3D0004541520D0A2044202A2A202B2B20203A86
:10E3E00044554D500D0A204520202020202020207B
:10E3F0003A53390D0A2046202A2A202B2B20403A56
:10E4000046494E440D0A204720202020202020206D
:10E410003A474F0D0A204A202A2A20202020203A5D
:10E420004A554D500D0A204C20202020202020202D
:10E430003A4C4F41440D0A204D202A2A202020200A
:10E44000203A4D454D43484720204E4558545B5394
:10E45000505D4241434B5B5E5D0D0A2050202A2AED
:10E46000202B2B20203A50554E43480D0A20522095
:10E47000202020202020203A524547202020202004
:10E480004343204220412049582050432053500DFF
:10E490000A205A20202020202020203A4A205052B2
:10E4A0004F4D2004E600865B8D4D085858582404D3
:10E4B00086482002862A8D3F5824048649200286F9
:10E4C0002E8D34582404864E2002862E8D29582401
:10E4D00004865A2002862E8D1E5824048656200259
:10E4E000862E8D1358240486432002862E8D08869E
:0AE4F0005D8D04BDE0CC397EE1D360
:10E500008D037EE0D08D67CE000F8D5AF66005F04A
:10E510006003B66004B260022702C6FF86428D30F7
:10E5200037308D3C324CB76046CE60028D328D3034
:10E53000FE60028D2B7A604626F9FF6002CE00193C
:10E540008D24FE600209BC600426C186478D013916
:10E5500037F68094575724F9B78095B78000333940
:10E56000A6008DEC083986FF8DE60926F93986016B
:0CE57000B780940101018651B7809439F6
:10E580008D037EE0D08DE78D2481422705814726CB
:10E59000F6398D19165C8D15B760028D10B76003C2
:10E5A000FE60028D08A700085A26F820DAB680948B
:10E5B0004724FAB68095B780003637FF6044CE60B6
:0CE5C00046A700BDE0CAFE6044333239BB
:08FFF800E000E182E198E0D095
:10E600007EE8830D0A040D0A072B043F0707043F29
:10E6100000F2024202EAC34402EA9B4A01E9CC54F6
:10E6200002EA515403EA495404EA5B5405EA515A98
:10E6300000F3004D01EA765002F1F34C00E5854706
:10E6400000E0D0A70039E7003986207EED328D6AE0
:10E65000A6008D71A7000809C636E703C6695A26C9
:10E66000FDC63EE7038D7126E77A001126E08D4650
:10E67000C6FFE700C6C0D7108D40A6008D47A10099
:10E6800026078D5426F486A08C86C08D2F6F007EC1
:10E69000E0D08D2263006302863EA701A7036F00CE
:10E6A0006F02C63EE701C636E701398D0F6D012ABC
:10E6B000FC4F4A26FD39CE80503920338DF8A70211
:10E6C0008DE06F02398DEFD612C403DB10E7028DA7
:10E6D000D1D613E702080939DE1208DF128C0800D0
:10E6E000398DAF86C0971086A08DC086FFA700CE5B
:10E6F0000400DF1239FF61203637FE6158C62081E1
:10E70000202B1F7D615F26108C61582708A7000809
:10E71000FF615820060D20047A615F0C3332FE61E0
:10E720002039810D2779810826148C613827050945
:10E73000E70020DCA627A12627E16C2720DD811831
:10E740002729811A272520D3FF6120CE613836374B
:10E7500086C0A7228620A7236F246F256F26CE8030
:10E76000526F0186BFA7008606A70186A0B7805218
:10E77000C6208620CE6138EF20A700085A26FAA6C8
:10E7800006A7072097FF61203637CE6138A62216EC
:10E790008A10A7228D31E72220D1FF61203637B6BB
:10E7A00080524828C6CE61380FE622C40F27098D53
:10E7B0001625078D465A26F78D0DC620A6008D4CCE
:10E7C000085A26F80E20A43637A6222B046F2020E4
:10E7D000278A6F4C260A6D24270A8D1F6A2426FA81
:10E7E0006D242612A6258B0119A725A623A7248D03
:10E7F0000A8D088D060D6A24333239862037C620EB
:10E80000368D09325A26F93339BDED107EEE078672
:10E81000508DF986418DF586478DF186458DED86C3
:10E82000208DE9A625444444448DDEA6258DDA8654
:10E83000208DD9862D37C61820C6CE80504FA7010F
:10E84000A703A70086BFA7028606A701A70386A085
:10E85000A702398620CE5000BDE643088C5400261E
:10E86000F739C630CE5400BDE646088C580026F76E
:10E87000397F604ABDE7488DC18DD88DE5BDEE7A00
:10E880007EEFCC8DEC8E60C0CEE606BDED098D63CB
:10E89000813F255A36CE3FEE096F008C3FE026F8C7
:10E8A000814C270808088150270208085F32CEE60D
:10E8B0000FA100260AE1012612EE02AD0020C608D3
:10E8C0000808088CE64326E97EE8EEBDE6495CFFD1
:10E8D0004020CE3FE4BDEC9DFE4020E10127DABDA3
:10E8E000E6495CCE3FE6BDEC9DFE402020CBBDEC72
:10E8F0009320927EED30B63FEF260DBDED238105CE
:10E9000027037EED327C3FEFFF3FD0378102276146
:10E91000FE3FC2FF3FC0BDEFB5E600C890E700BDB7
:10E92000ED5CC890E700C601801C270F4A270A4A01
:10E9300027054A260B4A5A4C4C4A5ABDEED520D0E0
:10E940008B1FFE3FC2810D2718810926048D3D20B3
:10E95000BF810B26048D4F20B7812025B38DA320C6
:10E96000AF7C3FEFBC3FCA270C8D5AA60081A02682
:10E97000F38D4D2509C6A0A600E7001126097F3FAB
:10E98000EF8D3D24FC860D33FE3FD039C620A60016
:10E99000E700368D2B3324F6FE3FC6FF3FC28D25A0
:10E9A000BC3FC026F9398D1824FCFE3FC6FF3FC28C
:10E9B0008620368D1033A600E700BC3FC026F33911
:10E9C000BDEEBB2003BDEF4FFE3FC239FE3FE46EFC
:10E9D000008D6A8D6FFF3FE4094FE6002A0143FB7B
:10E9E0003FE5B93FE4CE3FE08D30FE3FE439A6007D
:10E9F00081CE271C818C2718818E2714818D27D1E9
:10EA000084F0812027CB8160253584308130262D0C
:10EA10008D2D8D260909A600E601B13FE82603F1F8
:10EA20003FE9251EB13FEA2603F13FEB2214FB3FED
:10EA3000EDB93FECA700E7018D0A7EECF58D007E75
:10EA4000ECF708088D007EECF9FE3FE8FF3FEA2076
:10EA50000ACE3FE8BDEB39E705A704FE3FE48D5041
:10EA60008D8CFF3FE4B63FE4F63FE5B13FE6260379
:10EA7000F13FE723E939FE3FE409088D33BDECFDA2
:10EA8000BDE64909BDED30810D2737812027EBBD5B
:10EA9000ECA9A700A10027E27EEC93FE3FE48D10D5
:10EAA000C6088D9B09BC3FE62718085A26F420EEBD
:10EAB000FF3FE0CEE603BDED09CE3FE0BDEA3AFE02
:10EAC0003FE039CE3FE4E603A602C0028200E00147
:10EAD000A200251426185D2B15FE3FE4E7018D03E7
:10EAE000FE3FE68DCB7EE9EE4326035D2BEB39CE70
:10EAF0003FE48D45251B8D4AFE3FE6A60009FF3FFA
:10EB0000E6FE3FEA8D26BC3FE8272D09FF3FEA20BD
:10EB1000E78D2FFE3FE4A60008FF3FE4FE3FE88DAF
:10EB20000BBC3FEA271208FF3FE820E7A700A1003F
:10EB30002706BDEC87FE3FE039E605A604E001A20A
:10EB40000039EB03A902E707A70639CEAA55FF3F14
:10EB5000E07F3FEA8D21CE3FE08D25088C3FEA26FD
:10EB6000F88D14FE3FE48D18BC3FE62705088D1094
:10EB700020F6B63FEA8D0BCE0C008D290926FB3915
:10EB8000A60036BB3FEAB73FEA327F3FEBC6088DAF
:10EB9000124825057C3FEB8D238D0A5A26F3743FDE
:10EBA000EB24028D1737C63EF78053C6105A26FD58
:10EBB000C636F78053C60F5A26FD333937C63EF79F
:10EBC0008053C6145A26FD3339CE3FE86D00260225
:10EBD0006D01397F3FEB8D7717CB02F03FEAB73FEE
:10EBE000EA25F0C10424EC7C3FEB2AEA4A16541BC8
:10EBF000B73FEC7F3FEA8D6781AA26D78D618155AB
:10EC000026F1CE3FE28D58A700088C3FEA26F68D0C
:10EC10007DCE3FE28D76FE3FE0BC3FE226B8CE3FA0
:10EC2000E48D698D678DA227028D61FE3FE48D2FF3
:10EC3000A700BC3FE62705088D2520F48D2148B1AB
:10EC40003FEA264F8D832706A60136A60036395F98
:10EC50007D80502AFB5C7D80502BFAF13FEC394FD0
:10EC6000B73FEB8DEA25FCC609378DE325037C3FD2
:10EC7000EB49335A26F346763FEB250936BB3FEA8C
:10EC8000B73FEA323931318D0ACE3FE02067CEE618
:10EC9000032076FF3FE0CEE60B206E8D5C8D008D6D
:10ECA00004A7000839378D30333748484848168D57
:10ECB000271B33398610B78094B680944724FAB660
:10ECC000809539368651B78094B68094474724F9A9
:10ECD00032B78095B78000398D6C80302B13810955
:10ECE0002F0A81112B0B81162E078007368D3032AB
:10ECF00039337EE8858D068D0486202035A6008D6B
:10ED00001AA6000820198D2A08A600810426F739C2
:10ED1000840F8B30813923028B0739444444448D5E
:10ED2000EF200F7D3FCE2702208A201A8DF5203854
:10ED30008D147D3FCF27028D8A7D604A2703BDE673
:10ED4000F5BDE1D12022FF3FC037FE3FC2E600867D
:10ED50005FA7008D07E70033FE3FC039B680184734
:10ED600024FAB68019847F39FF3FC03736FE3FC290
:10ED7000C62081202521BDE64308FF3FC2BC3FC617
:10ED8000260C7D3FCE26028D5A8D79FE3FC4FF3F73
:10ED9000C23233FE3FC039810D260786A0BDE6434F
:10EDA00020E08108260ABC3FC427E309E70020DEF3
:10EDB00081182605BDEE5120D5811A26048D7320B9
:10EDC000D0801427104C27074C27094C260C4CB731
:10EDD0003FCE20BA4CB73FCF20B47D3FCE26AF8D7B
:10EDE0007D20ABB68052482A1AFE3FC4BC3FC227E2
:10EDF000120E0908A6008D0F5ABC3FC226F5C41F8B
:10EE000026F40F397EEEA27D604A272536FF604446
:10EE1000B7800081602A117D8052B78052CE0600F3
:10EE20000927057D80532AF886A0B78052FE6044EA
:10EE3000323986A0FE3FCABDE64608BC3FCC26F765
:10EE40002050FE3FCAC6A0A620A70008BC3FC4268B
:10EE5000F6FE3FC609BDE646BC3FC426F7398B50D7
:10EE60003737C63EF78053165A26FDC636F780530D
:10EE7000165A26FD335A26E93339CE0000FF3FCE1D
:10EE8000FF3FEEFF3FF6CE5040FF3FCACE53DFFFBD
:10EE90003FCCCE5040FF3FC2FF3FC4CE505FFF3F4C
:10EEA000C6398D042414209A8D6BF63FCCB63FCD25
:10EEB000FE3FC68D7A24038D4F0D39F63FC6B63F0F
:10EEC000C7FE3FC208FF3FC28D6522088DDAFE3FB4
:10EED000C4FF3FC239FF3FC0374D2B0B2710368D83
:10EEE000DA324A26F92007368D65324C26F9335D31
:10EEF0002B0B2710378DB1335A26F92007378D3C5D
:10EF0000335C26F9FE3FC039CE3FC28D028D00C66C
:10EF1000FF86E0200ACE3FC28D028D005F86208DE5
:10EF2000050808392082AB01E900A701E70039FF95
:10EF30003FC8CE3FC8E1002602A101398DCAF63F85
:10EF4000CAB63FCBFE3FC48DE623038DC80C39F60D
:10EF50003FC4B63FC5FE3FC209FF3FC28DD1230962
:10EF60008DDAFE3FC609FF3FC239F63FDF545454E5
:10EF7000F73FD14FC6FE36B63FDE444444B73FD0DC
:10EF800032FE3FC2BC3FC6270DA700FF3FC08D2504
:10EF9000E700FE3FC0084C26015C7A3FD026E536EC
:10EFA000378D81333225057A3FD126CA8D8E25FCD7
:10EFB0008D9D26FC393736C6044FBB3FC1F93FC093
:10EFC000B73FC9F73FC8FE3FC832333986C0B73FA5
:10EFD000DE86A6B73FDFCE4000FF3FDACE5000FF0F
:10EFE0003FDC39FE3FDA6F0008BC3FDC26F8398D84
:10EFF0001AA40027015C398D12AA00200B8D0C4346
:10F00000A40020048D05A800A70039B73FD6F73F1C
:10F01000D7FE3FDAB13FDE224FF13FDF224A3637DB
:10F02000FE3FDAFF3FD284F8C4071BBB3FD3B73F94
:10F03000D3B63FDEB73FD05F3284F8444444743FD8
:10F04000D024103637BB3FD3F93FD2B73FD3F73F79
:10F05000D2333248597D3FD026E4868033C4072717
:10F0600004445A26FCFE3FD2398D6B8D8A8D1525BE
:10F07000FA398D628D878D0C25FA398D598D858DE4
:10F080000325FA39B63FF94CB73FF9B13FF62238BC
:10F09000B63FF8BB3FF72508B73FF8B13FF6251458
:10F0A000B03FF6B73FF8B63FD4F63FD5BB3FF4FBD1
:10F0B0003FF5200CB63FD4F63FD5BB3FF2FB3FF304
:10F0C000B73FD4F73FD50D39B63FD4F63FD5B73F5C
:10F0D000D6F73FD70C39B73FD8F73FD97F3FF27FFC
:10F0E0003FF37F3FF47F3FF5B03FD625087C3FF2EA
:10F0F0007C3FF42007407A3FF27A3FF4F03FD72577
:10F10000087C3FF37C3FF52007507A3FF37A3FF5C8
:10F1100011250C7F3FF3B73FF6F73FF71620097F25
:10F120003FF2B73FF7F73FF654F73FF87F3FF9B6A6
:10F130003FD6F63FD7B73FD4F73FD5397F3FF77A71
:10F140003FF7200B7F3FF720067F3FF77C3FF7B765
:10F150003FD4F73FD5FF3FE4BDF00BB73FF2273474
:10F16000B63FD2F63FD3B73FE2F73FE3CB08890083
:10F17000B73FD2F73FD3F63FD5CAF8F73FF4B63FD3
:10F18000F2B73FF3FE3FE4A60008FF3FE44D26053B
:10F19000A60026CC39FE3FE236B63FE2F63FE3B1A9
:10F1A0003FDC2603F13FDD32242A5F783FF3250759
:10F1B0004456783FF324F97D3FF72B102706A8002B
:10F1C000E808200C4353A400E4082004AA00EA083D
:10F1D000A700E70808FF3FE27C3FF426A14FF63F77
:10F1E000DEC008FB3FE3B93FE2B73FE2F73FE3C6CB
:10F1F000F82088FE3FE4FF6002FE3FE6FF60047EE9
:10F20000E505CEF209BDED09390D0A2042202A2A72
:10F21000202B2B203A4252414E43480D0A204420D5
:10F220002A2A202B2B203A44554D500D0A204720E6
:10F230002020202020203A474F2053575442554742
:10F240000D0A204A202A2A202020203A4A554D50D3
:10F250000D0A204C202020202020203A4B43204C17
:10F260004F41440D0A204D202A2A202020203A4DCB
:10F27000454D434847205B53505D0D0A2050202ADE
:10F280002A202B2B203A4B432050554E43480D0A41
:10F290002054202A2A202B2B203A5452414E530D21
:10F2A0000A205A202020202020203A4A2042415380
:03F2B000494304CB
:10F300007EF3AD7EF3CE20003F009662265B9663CF
:10F310002713CE006A5F860ABDF6EEBDF625BDFA5C
:10F320009420128D4C863E8D6A8C8D48CE007909D2
:10F330008C007727F5986097608D23A700810827B8
:10F34000EE810D26066F00DF6C2029811827D481FD
:10F350001F25E2088C00C026DCC6017EFB29BDE12A
:10F36000AC8103276CBDED68398DF3810226FA204C
:10F37000BBBDFB0BCE00787F006539DE366F000821
:10F38000DF388680A7003932398DF08D04976220EE
:10F390005286117EF672079763BDF924800AC20077
:10F3A000976BD76A39BDF54EBDF8FE202A8E3F47D0
:10F3B000FEF306DF36FEF308DF3ACEF303FF6048C4
:10F3C000CEFED8FF60007F6017BDFEFB8DADBDE8AF
:10F3D000718E3F47BDF45ECEFD39BDFB23BDFB0BF7
:10F3E00007976E8E3F47BDF30ABDF6B127F8BDF70C
:10F3F0004A244C8DAB8D0220EADF569F58BDF49114
:10F40000DF54251BBDF486080F35DE54092006089D
:10F4100033E70026FA0833E700C18026F2DF38DE42
:10F4200056A6002735966D90578B03DE389B39978B
:10F430003924037C0038BDF4BE2406DF3820632065
:10F440003B9E380809A600369C5426F89E6AAF00F9
:10F45000089E56340832A70026FA9E580E39CE0070
:10F4600000DF62DF63DF66CE3FC0DF74CE3F80DF48
:10F4700070CE00C8DF72FEF306DF7639BDF68E244B
:10F480005ECEFD4A206108086D0026FB39DE6E2A3B
:10F4900003DE3608966BD66A2B05260E4D260BC664
:10F4A000038CC6027EFB298DDD08BDF51B22F839D1
:10F4B000BDF9245D26014D398DF627CC201C963BE5
:10F4C000D63A9039D238397EF3D78D92DE3608DFBE
:10F4D0006EA60048966E23EF0808BDF68E2505BD82
:10F4E000F9662009CEFD7D8E3F47BDF7DE09BDF6EA
:10F4F000AD26FB0824D920E2494848484879005401
:10F50000594826F9088D0525EF965439BDF772251F
:10F51000098007813A0C2D02814039E1002602A1C1
:10F520000139DF56CEFE369F580F9E5634080832FA
:10F5300016E00058270EE600082AFB812E27085304
:10F5400026E8200624E808319F569E580E397F0091
:10F55000668D2227238D422708DF56CEFE3EBDF75B
:10F56000DE8D122713813B2706812C26458D0F083F
:10F570008D0326E1397EF6B17EFB0BBDFA949665CC
:10F58000850726F739BDF9247EF672BDF9241620C9
:10F5900003BDFA94D16522F9398DDA8122270481DD
:10F5A00027260E160820028DDFA600270508112643
:10F5B000F639C6048CC6057EFB29A600AA0127F5EC
:10F5C0008D448D304940168D30498801468D2097F5
:10F5D0005BD75ABDF51B26084F166C0326026C023A
:10F5E0000808398D218D0D4959A001E2008D0A7A54
:10F5F000006426F1690369023937E800330D2A05F2
:10F60000AB01E9000C39861097644F5F398DF748DC
:10F6100059690169002404AB03E9027A006426EF0A
:10F6200008087EF6F2EE00DF52CE00528D4A250623
:10F63000D6662706178C86028D380909C60AE701A7
:10F640006F0057378D9D33365A26F8CE0078C604A2
:10F65000966432260D976426097D00662706966714
:10F6600080308D045A26E9328B307D00632703A752
:10F6700000087C00657EED326D002A0860012602DC
:10F680006A0063003981402503815B390C398D2183
:10F69000DF5681212726812E2722812A271E8DE5EC
:10F6A00024EAA601812E27148DDB24E03908BDFE53
:10F6B000FBA600812027F64D2703813A0D398DF1F5
:10F6C000812D26048D1F2007812B2701098D4EDEF9
:10F6D000568DDE812B26068D448D0E20F2812D263F
:10F6E000158D0220F48D362093BDF9260808AB0154
:10F6F000E900A701E70039BDF8138D23BDF678DED8
:10F700005639CA018CCA028CCA0408C15F8DA28115
:10F710003E27EF813D27EE813C27ED4F398D5EDF9F
:10F7200056DE72398D988DE45D27F8378D90BDF9DE
:10F7300026DE72A001E200332D072E034D2701576C
:10F7400057C401E7016F00DE54398D2624235FD7AB
:10F7500055D754840F97649655485948599B55D9A5
:10F760005448599B649755C900088D0625E3965562
:10F770000D39BDF6B181300C2D02813A398D42BD73
:10F78000F6B1812A260B8D14BDF60DDF72DE5620F0
:10F79000EE812F26DC8D05BDF5BA20EF8D237EF797
:10F7A0001F5FD754BDF50420498D16BDF9268D7510
:10F7B000A6005F203BA102264EA6015F0808082094
:10F7C00031088D86252C812327DF812227E7812799
:10F7D00027E3812427CBBDF68E2434CEFDF5BDF57D
:10F7E00027A60136A60036DE56398D39A601E60079
:10F7F000DE56DF54DE7209099C6C2F08BDF6F2DF7D
:10F8000072DE5439C6068CC6078CC6087EFB298D6D
:10F810007924D7A600812826EE08BDF724A600810A
:10F820002926E40839DF569755D75420D4BDFBDB91
:10F830002706D65A965B20BA08BDF7248D0E26CA35
:10F84000088DD7DF54DE72BDF5BA20B0A600812C3A
:10F8500039D66196601BC99589AB9761D7608D9247
:10F860008DB120DFBDFC7D8D0220858D1636378D54
:10F870000D36378D09363707368DA2DF563B8DCCD6
:10F880002604087EF9244F5F0D39BDF6B181252786
:10F890000E814025F3815D22EF843F485F083908DF
:10F8A000BDF772243908BDFBDB2707840F488B3C6A
:10F8B0005F3936BDF819328DF2BDF825BDF92848FB
:10F8C00059BDF600DE5639BDF88A25159753D75233
:10F8D000A600813D260B088D4BDF56DE5239C60E41
:10F8E0008CC6098CC60A7EFB297F005FBDF74A25BE
:10F8F000537EF4DABDF7C18D2D8DD11620719F583E
:10F900000F35DE708C3F4A27DB0909AF00DF70300E
:10F910009E580E39DE708C3F8027C99F580FAE006D
:10F92000080820E98D16DF54DE728C00C827B2A6C5
:10F9300001E6000808DF72DE5439DE567EF7244FF8
:10F94000975F8DE0BDF3A05D26034D27EC7D005F42
:10F9500027028DAADE6EBDF51B240376006EBDF472
:10F960008D25587EF4CF8123278ABDF8C7A701E7EC
:10F9700000DE56398DF49653D652BDF7F2BDF5220E
:10F980008CFE3A26338DB3BDF5228CFE40270886C7
:10F99000015FBDF7F020048DA1DF569657D656BD06
:10F9A000F7F29653D652DE748C3FC027188D1A2476
:10F9B00012DE748C00C8260DC60C8CC60B8CC60DCE
:10F9C0007EFB298D548D10204BBDF51B27088D49DA
:10F9D0008C3FC026F40D398D008D00BDF926090934
:10F9E0007EF6F2BDF88ADF56DE742404A601E60036
:10F9F0008DDE25CADF74A605E604EE00BDF6EEDE58
:10FA000074E1020D2D070C2E04A103271546A8044E
:10FA10002B108D05DF74DE56390808080808080821
:10FA20000839EE0639DF5296522756DE6CDF50DE7B
:10FA300052BDF59926028D4CBDF88A25443637DF34
:10FA400052DE508D4C2609863F8D4B8D47BDF32CE1
:10FA5000BDF6B181242504815B250ADF54CEFD4328
:10FA6000BDFB1020E2BDF9248D1ADF5030EE0031CD
:10FA700031BDF6F2DE528D19270F812C26030820A6
:10FA8000B77EF3598D0426010839368D04812C3256
:10FA9000397EF6B186207EF6728D00DF54CE0020CE
:10FAA0000926FDDE543986128DEC975C8DEB200320
:10FAB0007F005C5FD7668601BDF3A0C67F86FF36F8
:10FAC0008DCF32270EBDF924BDF3A08DBD260408CD
:10FAD000BDF9249759D758DE582E05CE7FFFDF5841
:10FAE000BDF4918C8D139659D658BDF51B24F5DFC6
:10FAF00054CEFD298D1A7EF3D186028D998D190879
:10FB000086208D1B8D05965C269139DF54CEFD40F5
:10FB10008D117F0065DE5439DF54BDF62520F6BD1A
:10FB2000F67208A60026F808398E3F478DDDCEFD17
:10FB30002D8DF0175FD7668D17DE6E2BB98DCC8DAE
:10FB4000B820B3E600D766E601D7670808BDF924F8
:10FB50003637DF54308DC333327F00663944444436
:10FB600044840F810A25028B078B307EF67236178C
:10FB70008D0132368DE73220E886248DEEA600080E
:10FB800081542708BDF9248DE57EFA94BDF9248DB2
:10FB9000E220F6BDF35E5F7EF7F2BDE8712023BD83
:10FBA000EF6AC61ABDE86420198D468D35BDEFEFAA
:10FBB000175FDE567EF7F2A600815726088D21BD1D
:10FBC000EFF7DE5639814226078D15BDEFFD20F295
:10FBD0008152266A8D0ABDF00420E7E600C128396B
:10FBE0008D0981C02419C1A6241539088DED26542C
:10FBF00008BDFC86DA5C260716965D39C60F8CC6F2
:10FC0000107EFB2924F9112EF639BDE8628DCC2631
:10FC1000088DDDC11D8DED20064FC61CBDEFE336FE
:10FC2000861C8D33DF5E4F338D2DBDFECCC5022685
:10FC300004C6A0E700089C5E26F04F5F20157EFEFC
:10FC400059DE56397EF8E18D348DA6811D24B0C170
:10FC50001D2AAC8D0220EABDEE92BDEED5FE3FC25C
:10FC600039BDF813BDF9265D2B0A26034D27085F21
:10FC70008601200386FF167EF7F27EF807BDFBDBC8
:10FC800026F808398DF7BDF924975DD75CBDF84C8F
:10FC900026B208BDF92436BDF81D32DF56398DE491
:10FCA000945DD45C7EF7F28DDB9A5DDA5C20F58D95
:10FCB000D3985DD85C20EDBDF924DF50DE36BDF46D
:10FCC000A9253A092027DF50DE76BDF6B1812C2721
:10FCD000184D27067EF359BDF486A60181802720A2
:10FCE000A60308812A26F0080808BDF724DF76DE7F
:10FCF00050398DC3DE7608BDF3807EF3D17EF9BB2B
:10FD0000C6117EFB29B66017260286647F60175FE6
:10FD1000DE567EF7F27EFBFFBDF4B02706BDF91478
:10FD2000DE5439DE70EE00083903131400455252D8
:10FD30004F52204E4F2E000D0A52454144590700A4
:10FD40000D0A0052452D454E544552004C4953D49E
:10FD5000FAB04C4F41C4F3895255CEF4CA45D8E0AD
:10FD6000D0415554CFF3964E45D7F3CC534156C5A9
:10FD7000FEC4415050454EC4F38B4445CCFCF24E7A
:10FD80004558D4F9E3554E5449CCFD18474F54CF4C
:10FD9000F93F474F5355C2F940544845CEF8E9461C
:10FDA0004FD2F97444CFF8FEA1FBB75245D4F914F1
:10FDB000494E5055D4FA2549C6F4B85052494ED44C
:10FDC000F54E434CD2FC0A435552D3FC474752C12F
:10FDD000FB9F524553544F52C5FCB75245CDF48852
:10FDE000AAF488454EC4F3D153544FD0F3A5434FE2
:10FDF00050D9FB9AFFFC44524EC4F851524541C4BD
:10FE0000FCC64142D3F6F74D4FC4F82D2150A8FB54
:10FE1000A9555345D2F864414EC4FC9E4FD2FCA76D
:10FE2000584FD2FCAF5347CEFC614B45D9FD054737
:10FE30004554A4FB93FFF80754CF0000535445D01A
:10FE4000434852A4F5855441C2F58B48C4FB79550B
:10FE500053494EC7FB43FFFB4D814C261B8D437A14
:10FE60000068270F7A00682705BDF07B2031BDF0C0
:10FE700072202CBDF0692027815326458D2436370A
:10FE8000BDF924BDF82533327A0068270F7A00685F
:10FE90002705BDF1492008BDF1442003BDF13CDE3A
:10FEA00056397F006808A6008157270E8142270730
:10FEB0008152260D7C00687C00687C0068BDFBEBED
:10FEC000397EF8E18651B780947EFAA6FF3FC0BD27
:10FED000EFB5E600FE3FC039B6801848241C444404
:10FEE0002412B68019847FB760178103260C7F60C7
:10FEF000177EF3D1B680197F60173B368695B780A1
:04FF000018320E396C
:00000001FF
